{
  "_format": "hh-sol-artifact-1",
  "contractName": "MockNFT",
  "sourceName": "contracts/MockNFT.sol",
  "abi": [
    {
      "inputs": [
        {
          "internalType": "string",
          "name": "name",
          "type": "string"
        },
        {
          "internalType": "string",
          "name": "symbol",
          "type": "string"
        }
      ],
      "stateMutability": "nonpayable",
      "type": "constructor"
    },
    {
      "inputs": [
        {
          "internalType": "address",
          "name": "sender",
          "type": "address"
        },
        {
          "internalType": "uint256",
          "name": "tokenId",
          "type": "uint256"
        },
        {
          "internalType": "address",
          "name": "owner",
          "type": "address"
        }
      ],
      "name": "ERC721IncorrectOwner",
      "type": "error"
    },
    {
      "inputs": [
        {
          "internalType": "address",
          "name": "operator",
          "type": "address"
        },
        {
          "internalType": "uint256",
          "name": "tokenId",
          "type": "uint256"
        }
      ],
      "name": "ERC721InsufficientApproval",
      "type": "error"
    },
    {
      "inputs": [
        {
          "internalType": "address",
          "name": "approver",
          "type": "address"
        }
      ],
      "name": "ERC721InvalidApprover",
      "type": "error"
    },
    {
      "inputs": [
        {
          "internalType": "address",
          "name": "operator",
          "type": "address"
        }
      ],
      "name": "ERC721InvalidOperator",
      "type": "error"
    },
    {
      "inputs": [
        {
          "internalType": "address",
          "name": "owner",
          "type": "address"
        }
      ],
      "name": "ERC721InvalidOwner",
      "type": "error"
    },
    {
      "inputs": [
        {
          "internalType": "address",
          "name": "receiver",
          "type": "address"
        }
      ],
      "name": "ERC721InvalidReceiver",
      "type": "error"
    },
    {
      "inputs": [
        {
          "internalType": "address",
          "name": "sender",
          "type": "address"
        }
      ],
      "name": "ERC721InvalidSender",
      "type": "error"
    },
    {
      "inputs": [
        {
          "internalType": "uint256",
          "name": "tokenId",
          "type": "uint256"
        }
      ],
      "name": "ERC721NonexistentToken",
      "type": "error"
    },
    {
      "inputs": [
        {
          "internalType": "address",
          "name": "owner",
          "type": "address"
        }
      ],
      "name": "OwnableInvalidOwner",
      "type": "error"
    },
    {
      "inputs": [
        {
          "internalType": "address",
          "name": "account",
          "type": "address"
        }
      ],
      "name": "OwnableUnauthorizedAccount",
      "type": "error"
    },
    {
      "anonymous": false,
      "inputs": [
        {
          "indexed": true,
          "internalType": "address",
          "name": "owner",
          "type": "address"
        },
        {
          "indexed": true,
          "internalType": "address",
          "name": "approved",
          "type": "address"
        },
        {
          "indexed": true,
          "internalType": "uint256",
          "name": "tokenId",
          "type": "uint256"
        }
      ],
      "name": "Approval",
      "type": "event"
    },
    {
      "anonymous": false,
      "inputs": [
        {
          "indexed": true,
          "internalType": "address",
          "name": "owner",
          "type": "address"
        },
        {
          "indexed": true,
          "internalType": "address",
          "name": "operator",
          "type": "address"
        },
        {
          "indexed": false,
          "internalType": "bool",
          "name": "approved",
          "type": "bool"
        }
      ],
      "name": "ApprovalForAll",
      "type": "event"
    },
    {
      "anonymous": false,
      "inputs": [
        {
          "indexed": true,
          "internalType": "address",
          "name": "previousOwner",
          "type": "address"
        },
        {
          "indexed": true,
          "internalType": "address",
          "name": "newOwner",
          "type": "address"
        }
      ],
      "name": "OwnershipTransferred",
      "type": "event"
    },
    {
      "anonymous": false,
      "inputs": [
        {
          "indexed": true,
          "internalType": "address",
          "name": "from",
          "type": "address"
        },
        {
          "indexed": true,
          "internalType": "address",
          "name": "to",
          "type": "address"
        },
        {
          "indexed": true,
          "internalType": "uint256",
          "name": "tokenId",
          "type": "uint256"
        }
      ],
      "name": "Transfer",
      "type": "event"
    },
    {
      "inputs": [
        {
          "internalType": "address",
          "name": "to",
          "type": "address"
        },
        {
          "internalType": "uint256",
          "name": "tokenId",
          "type": "uint256"
        }
      ],
      "name": "approve",
      "outputs": [],
      "stateMutability": "nonpayable",
      "type": "function"
    },
    {
      "inputs": [
        {
          "internalType": "address",
          "name": "owner",
          "type": "address"
        }
      ],
      "name": "balanceOf",
      "outputs": [
        {
          "internalType": "uint256",
          "name": "",
          "type": "uint256"
        }
      ],
      "stateMutability": "view",
      "type": "function"
    },
    {
      "inputs": [
        {
          "internalType": "address",
          "name": "to",
          "type": "address"
        },
        {
          "internalType": "uint256",
          "name": "quantity",
          "type": "uint256"
        }
      ],
      "name": "batchMint",
      "outputs": [],
      "stateMutability": "nonpayable",
      "type": "function"
    },
    {
      "inputs": [
        {
          "internalType": "uint256",
          "name": "tokenId",
          "type": "uint256"
        }
      ],
      "name": "exists",
      "outputs": [
        {
          "internalType": "bool",
          "name": "",
          "type": "bool"
        }
      ],
      "stateMutability": "view",
      "type": "function"
    },
    {
      "inputs": [
        {
          "internalType": "uint256",
          "name": "tokenId",
          "type": "uint256"
        }
      ],
      "name": "getApproved",
      "outputs": [
        {
          "internalType": "address",
          "name": "",
          "type": "address"
        }
      ],
      "stateMutability": "view",
      "type": "function"
    },
    {
      "inputs": [
        {
          "internalType": "address",
          "name": "owner",
          "type": "address"
        },
        {
          "internalType": "address",
          "name": "operator",
          "type": "address"
        }
      ],
      "name": "isApprovedForAll",
      "outputs": [
        {
          "internalType": "bool",
          "name": "",
          "type": "bool"
        }
      ],
      "stateMutability": "view",
      "type": "function"
    },
    {
      "inputs": [
        {
          "internalType": "address",
          "name": "to",
          "type": "address"
        },
        {
          "internalType": "uint256",
          "name": "tokenId",
          "type": "uint256"
        }
      ],
      "name": "mint",
      "outputs": [],
      "stateMutability": "nonpayable",
      "type": "function"
    },
    {
      "inputs": [
        {
          "internalType": "address",
          "name": "to",
          "type": "address"
        }
      ],
      "name": "mintNext",
      "outputs": [
        {
          "internalType": "uint256",
          "name": "",
          "type": "uint256"
        }
      ],
      "stateMutability": "nonpayable",
      "type": "function"
    },
    {
      "inputs": [],
      "name": "name",
      "outputs": [
        {
          "internalType": "string",
          "name": "",
          "type": "string"
        }
      ],
      "stateMutability": "view",
      "type": "function"
    },
    {
      "inputs": [],
      "name": "owner",
      "outputs": [
        {
          "internalType": "address",
          "name": "",
          "type": "address"
        }
      ],
      "stateMutability": "view",
      "type": "function"
    },
    {
      "inputs": [
        {
          "internalType": "uint256",
          "name": "tokenId",
          "type": "uint256"
        }
      ],
      "name": "ownerOf",
      "outputs": [
        {
          "internalType": "address",
          "name": "",
          "type": "address"
        }
      ],
      "stateMutability": "view",
      "type": "function"
    },
    {
      "inputs": [],
      "name": "renounceOwnership",
      "outputs": [],
      "stateMutability": "nonpayable",
      "type": "function"
    },
    {
      "inputs": [
        {
          "internalType": "address",
          "name": "from",
          "type": "address"
        },
        {
          "internalType": "address",
          "name": "to",
          "type": "address"
        },
        {
          "internalType": "uint256",
          "name": "tokenId",
          "type": "uint256"
        }
      ],
      "name": "safeTransferFrom",
      "outputs": [],
      "stateMutability": "nonpayable",
      "type": "function"
    },
    {
      "inputs": [
        {
          "internalType": "address",
          "name": "from",
          "type": "address"
        },
        {
          "internalType": "address",
          "name": "to",
          "type": "address"
        },
        {
          "internalType": "uint256",
          "name": "tokenId",
          "type": "uint256"
        },
        {
          "internalType": "bytes",
          "name": "data",
          "type": "bytes"
        }
      ],
      "name": "safeTransferFrom",
      "outputs": [],
      "stateMutability": "nonpayable",
      "type": "function"
    },
    {
      "inputs": [
        {
          "internalType": "address",
          "name": "operator",
          "type": "address"
        },
        {
          "internalType": "bool",
          "name": "approved",
          "type": "bool"
        }
      ],
      "name": "setApprovalForAll",
      "outputs": [],
      "stateMutability": "nonpayable",
      "type": "function"
    },
    {
      "inputs": [
        {
          "internalType": "string",
          "name": "baseURI",
          "type": "string"
        }
      ],
      "name": "setBaseURI",
      "outputs": [],
      "stateMutability": "nonpayable",
      "type": "function"
    },
    {
      "inputs": [
        {
          "internalType": "bytes4",
          "name": "interfaceId",
          "type": "bytes4"
        }
      ],
      "name": "supportsInterface",
      "outputs": [
        {
          "internalType": "bool",
          "name": "",
          "type": "bool"
        }
      ],
      "stateMutability": "view",
      "type": "function"
    },
    {
      "inputs": [],
      "name": "symbol",
      "outputs": [
        {
          "internalType": "string",
          "name": "",
          "type": "string"
        }
      ],
      "stateMutability": "view",
      "type": "function"
    },
    {
      "inputs": [
        {
          "internalType": "uint256",
          "name": "",
          "type": "uint256"
        }
      ],
      "name": "tokenExists",
      "outputs": [
        {
          "internalType": "bool",
          "name": "",
          "type": "bool"
        }
      ],
      "stateMutability": "view",
      "type": "function"
    },
    {
      "inputs": [
        {
          "internalType": "uint256",
          "name": "tokenId",
          "type": "uint256"
        }
      ],
      "name": "tokenURI",
      "outputs": [
        {
          "internalType": "string",
          "name": "",
          "type": "string"
        }
      ],
      "stateMutability": "view",
      "type": "function"
    },
    {
      "inputs": [],
      "name": "totalSupply",
      "outputs": [
        {
          "internalType": "uint256",
          "name": "",
          "type": "uint256"
        }
      ],
      "stateMutability": "view",
      "type": "function"
    },
    {
      "inputs": [
        {
          "internalType": "address",
          "name": "from",
          "type": "address"
        },
        {
          "internalType": "address",
          "name": "to",
          "type": "address"
        },
        {
          "internalType": "uint256",
          "name": "tokenId",
          "type": "uint256"
        }
      ],
      "name": "transferFrom",
      "outputs": [],
      "stateMutability": "nonpayable",
      "type": "function"
    },
    {
      "inputs": [
        {
          "internalType": "address",
          "name": "newOwner",
          "type": "address"
        }
      ],
      "name": "transferOwnership",
      "outputs": [],
      "stateMutability": "nonpayable",
      "type": "function"
    }
  ],
  "bytecode": "0x60806040523480156200001157600080fd5b5060405162001907380380620019078339810160408190526200003491620001fa565b3382826000620000458382620002f3565b506001620000548282620002f3565b5050506001600160a01b0381166200008657604051631e4fbdf760e01b81526000600482015260240160405180910390fd5b6200009181620000e3565b5060408051808201909152601c81527f68747470733a2f2f6170692e6578616d706c652e636f6d2f6e66742f000000006020820152600890620000d59082620002f3565b5050600060075550620003bf565b600680546001600160a01b038381166001600160a01b0319831681179093556040519116919082907f8be0079c531659141344cd1fd0a4f28419497f9722a3daafe3b4186f6b6457e090600090a35050565b634e487b7160e01b600052604160045260246000fd5b600082601f8301126200015d57600080fd5b81516001600160401b03808211156200017a576200017a62000135565b604051601f8301601f19908116603f01168101908282118183101715620001a557620001a562000135565b81604052838152602092508683858801011115620001c257600080fd5b600091505b83821015620001e65785820183015181830184015290820190620001c7565b600093810190920192909252949350505050565b600080604083850312156200020e57600080fd5b82516001600160401b03808211156200022657600080fd5b62000234868387016200014b565b935060208501519150808211156200024b57600080fd5b506200025a858286016200014b565b9150509250929050565b600181811c908216806200027957607f821691505b6020821081036200029a57634e487b7160e01b600052602260045260246000fd5b50919050565b601f821115620002ee57600081815260208120601f850160051c81016020861015620002c95750805b601f850160051c820191505b81811015620002ea57828155600101620002d5565b5050505b505050565b81516001600160401b038111156200030f576200030f62000135565b620003278162000320845462000264565b84620002a0565b602080601f8311600181146200035f5760008415620003465750858301515b600019600386901b1c1916600185901b178555620002ea565b600085815260208120601f198616915b8281101562000390578886015182559484019460019091019084016200036f565b5085821015620003af5787850151600019600388901b60f8161c191681555b5050505050600190811b01905550565b61153880620003cf6000396000f3fe608060405234801561001057600080fd5b506004361061014c5760003560e01c80634f558e79116100c357806395d89b411161007c57806395d89b41146102db578063a22cb465146102e3578063b88d4fde146102f6578063c87b56dd14610309578063e985e9c51461031c578063f2fde38b1461032f57600080fd5b80634f558e791461026657806355f804b3146102895780636352211e1461029c57806370a08231146102af578063715018a6146102c25780638da5cb5b146102ca57600080fd5b8063095ea7b311610115578063095ea7b3146101fd57806318160ddd1461021257806323b872dd1461021a57806340c10f191461022d57806342842e0e1461024057806343508b051461025357600080fd5b8062923f9e14610151578063016ea35a1461018957806301ffc9a7146101aa57806306fdde03146101bd578063081812fc146101d2575b600080fd5b61017461015f366004610feb565b60096020526000908152604090205460ff1681565b60405190151581526020015b60405180910390f35b61019c610197366004611020565b610342565b604051908152602001610180565b6101746101b8366004611051565b610384565b6101c56103d6565b60405161018091906110be565b6101e56101e0366004610feb565b610468565b6040516001600160a01b039091168152602001610180565b61021061020b3660046110d1565b610491565b005b60075461019c565b6102106102283660046110fb565b6104a0565b61021061023b3660046110d1565b610530565b61021061024e3660046110fb565b61061a565b6102106102613660046110d1565b61063a565b610174610274366004610feb565b60009081526009602052604090205460ff1690565b6102106102973660046111c3565b6106ec565b6101e56102aa366004610feb565b610700565b61019c6102bd366004611020565b61070b565b610210610753565b6006546001600160a01b03166101e5565b6101c5610767565b6102106102f136600461120c565b610776565b610210610304366004611248565b610781565b6101c5610317366004610feb565b610799565b61017461032a3660046112c4565b6107ae565b61021061033d366004611020565b6107dc565b60078054600091826103538361130d565b9091555050600754610365838261081a565b6000818152600960205260409020805460ff1916600117905592915050565b60006001600160e01b031982166380ac58cd60e01b14806103b557506001600160e01b03198216635b5e139f60e01b145b806103d057506301ffc9a760e01b6001600160e01b03198316145b92915050565b6060600080546103e590611326565b80601f016020809104026020016040519081016040528092919081815260200182805461041190611326565b801561045e5780601f106104335761010080835404028352916020019161045e565b820191906000526020600020905b81548152906001019060200180831161044157829003601f168201915b5050505050905090565b600061047382610834565b506000828152600460205260409020546001600160a01b03166103d0565b61049c82823361086d565b5050565b6001600160a01b0382166104cf57604051633250574960e11b8152600060048201526024015b60405180910390fd5b60006104dc83833361087a565b9050836001600160a01b0316816001600160a01b03161461052a576040516364283d7b60e01b81526001600160a01b03808616600483015260248201849052821660448201526064016104c6565b50505050565b60008181526009602052604090205460ff16156105865760405162461bcd60e51b8152602060048201526014602482015273546f6b656e20616c72656164792065786973747360601b60448201526064016104c6565b6001600160a01b0382166105dc5760405162461bcd60e51b815260206004820152601b60248201527f43616e6e6f74206d696e7420746f207a65726f2061646472657373000000000060448201526064016104c6565b6105e6828261081a565b6000818152600960205260409020805460ff19166001179055600754811061049c57610613816001611360565b6007555050565b61063583838360405180602001604052806000815250610781565b505050565b610642610973565b600081118015610653575060648111155b6106925760405162461bcd60e51b815260206004820152601060248201526f496e76616c6964207175616e7469747960801b60448201526064016104c6565b60005b8181101561063557600780549060006106ad8361130d565b91905055506106be8360075461081a565b6007546000908152600960205260409020805460ff19166001179055806106e48161130d565b915050610695565b6106f4610973565b600861049c82826113b9565b60006103d082610834565b60006001600160a01b038216610737576040516322718ad960e21b8152600060048201526024016104c6565b506001600160a01b031660009081526003602052604090205490565b61075b610973565b61076560006109a0565b565b6060600180546103e590611326565b61049c3383836109f2565b61078c8484846104a0565b61052a3385858585610a91565b60606107a482610834565b506103d082610bbc565b6001600160a01b03918216600090815260056020908152604080832093909416825291909152205460ff1690565b6107e4610973565b6001600160a01b03811661080e57604051631e4fbdf760e01b8152600060048201526024016104c6565b610817816109a0565b50565b61049c828260405180602001604052806000815250610c24565b6000818152600260205260408120546001600160a01b0316806103d057604051637e27328960e01b8152600481018490526024016104c6565b6106358383836001610c3c565b6000828152600260205260408120546001600160a01b03908116908316156108a7576108a7818486610d42565b6001600160a01b038116156108e5576108c4600085600080610c3c565b6001600160a01b038116600090815260036020526040902080546000190190555b6001600160a01b03851615610914576001600160a01b0385166000908152600360205260409020805460010190555b60008481526002602052604080822080546001600160a01b0319166001600160a01b0389811691821790925591518793918516917fddf252ad1be2c89b69c2b068fc378daa952ba7f163c4a11628f55a4df523b3ef91a4949350505050565b6006546001600160a01b031633146107655760405163118cdaa760e01b81523360048201526024016104c6565b600680546001600160a01b038381166001600160a01b0319831681179093556040519116919082907f8be0079c531659141344cd1fd0a4f28419497f9722a3daafe3b4186f6b6457e090600090a35050565b6001600160a01b038216610a2457604051630b61174360e31b81526001600160a01b03831660048201526024016104c6565b6001600160a01b03838116600081815260056020908152604080832094871680845294825291829020805460ff191686151590811790915591519182527f17307eab39ab6107e8899845ad3d59bd9653f200f220920489ca2b5937696c31910160405180910390a3505050565b6001600160a01b0383163b15610bb557604051630a85bd0160e11b81526001600160a01b0384169063150b7a0290610ad3908890889087908790600401611479565b6020604051808303816000875af1925050508015610b0e575060408051601f3d908101601f19168201909252610b0b918101906114b6565b60015b610b77573d808015610b3c576040519150601f19603f3d011682016040523d82523d6000602084013e610b41565b606091505b508051600003610b6f57604051633250574960e11b81526001600160a01b03851660048201526024016104c6565b805160208201fd5b6001600160e01b03198116630a85bd0160e11b14610bb357604051633250574960e11b81526001600160a01b03851660048201526024016104c6565b505b5050505050565b6060610bc782610834565b506000610bd2610da6565b90506000815111610bf25760405180602001604052806000815250610c1d565b80610bfc84610db5565b604051602001610c0d9291906114d3565b6040516020818303038152906040525b9392505050565b610c2e8383610e48565b610635336000858585610a91565b8080610c5057506001600160a01b03821615155b15610d12576000610c6084610834565b90506001600160a01b03831615801590610c8c5750826001600160a01b0316816001600160a01b031614155b8015610c9f5750610c9d81846107ae565b155b15610cc85760405163a9fbf51f60e01b81526001600160a01b03841660048201526024016104c6565b8115610d105783856001600160a01b0316826001600160a01b03167f8c5be1e5ebec7d5bd14f71427d1e84f3dd0314c0f7b2291e5b200ac8c7c3b92560405160405180910390a45b505b5050600090815260046020526040902080546001600160a01b0319166001600160a01b0392909216919091179055565b610d4d838383610ead565b610635576001600160a01b038316610d7b57604051637e27328960e01b8152600481018290526024016104c6565b60405163177e802f60e01b81526001600160a01b0383166004820152602481018290526044016104c6565b6060600880546103e590611326565b60606000610dc283610f13565b600101905060008167ffffffffffffffff811115610de257610de2611137565b6040519080825280601f01601f191660200182016040528015610e0c576020820181803683370190505b5090508181016020015b600019016f181899199a1a9b1b9c1cb0b131b232b360811b600a86061a8153600a8504945084610e1657509392505050565b6001600160a01b038216610e7257604051633250574960e11b8152600060048201526024016104c6565b6000610e808383600061087a565b90506001600160a01b03811615610635576040516339e3563760e11b8152600060048201526024016104c6565b60006001600160a01b03831615801590610f0b5750826001600160a01b0316846001600160a01b03161480610ee75750610ee784846107ae565b80610f0b57506000828152600460205260409020546001600160a01b038481169116145b949350505050565b60008072184f03e93ff9f4daa797ed6e38ed64bf6a1f0160401b8310610f525772184f03e93ff9f4daa797ed6e38ed64bf6a1f0160401b830492506040015b6d04ee2d6d415b85acef81000000008310610f7e576d04ee2d6d415b85acef8100000000830492506020015b662386f26fc100008310610f9c57662386f26fc10000830492506010015b6305f5e1008310610fb4576305f5e100830492506008015b6127108310610fc857612710830492506004015b60648310610fda576064830492506002015b600a83106103d05760010192915050565b600060208284031215610ffd57600080fd5b5035919050565b80356001600160a01b038116811461101b57600080fd5b919050565b60006020828403121561103257600080fd5b610c1d82611004565b6001600160e01b03198116811461081757600080fd5b60006020828403121561106357600080fd5b8135610c1d8161103b565b60005b83811015611089578181015183820152602001611071565b50506000910152565b600081518084526110aa81602086016020860161106e565b601f01601f19169290920160200192915050565b602081526000610c1d6020830184611092565b600080604083850312156110e457600080fd5b6110ed83611004565b946020939093013593505050565b60008060006060848603121561111057600080fd5b61111984611004565b925061112760208501611004565b9150604084013590509250925092565b634e487b7160e01b600052604160045260246000fd5b600067ffffffffffffffff8084111561116857611168611137565b604051601f8501601f19908116603f0116810190828211818310171561119057611190611137565b816040528093508581528686860111156111a957600080fd5b858560208301376000602087830101525050509392505050565b6000602082840312156111d557600080fd5b813567ffffffffffffffff8111156111ec57600080fd5b8201601f810184136111fd57600080fd5b610f0b8482356020840161114d565b6000806040838503121561121f57600080fd5b61122883611004565b91506020830135801515811461123d57600080fd5b809150509250929050565b6000806000806080858703121561125e57600080fd5b61126785611004565b935061127560208601611004565b925060408501359150606085013567ffffffffffffffff81111561129857600080fd5b8501601f810187136112a957600080fd5b6112b88782356020840161114d565b91505092959194509250565b600080604083850312156112d757600080fd5b6112e083611004565b91506112ee60208401611004565b90509250929050565b634e487b7160e01b600052601160045260246000fd5b60006001820161131f5761131f6112f7565b5060010190565b600181811c9082168061133a57607f821691505b60208210810361135a57634e487b7160e01b600052602260045260246000fd5b50919050565b808201808211156103d0576103d06112f7565b601f82111561063557600081815260208120601f850160051c8101602086101561139a5750805b601f850160051c820191505b81811015610bb3578281556001016113a6565b815167ffffffffffffffff8111156113d3576113d3611137565b6113e7816113e18454611326565b84611373565b602080601f83116001811461141c57600084156114045750858301515b600019600386901b1c1916600185901b178555610bb3565b600085815260208120601f198616915b8281101561144b5788860151825594840194600190910190840161142c565b50858210156114695787850151600019600388901b60f8161c191681555b5050505050600190811b01905550565b6001600160a01b03858116825284166020820152604081018390526080606082018190526000906114ac90830184611092565b9695505050505050565b6000602082840312156114c857600080fd5b8151610c1d8161103b565b600083516114e581846020880161106e565b8351908301906114f981836020880161106e565b0194935050505056fea26469706673582212207c9f295cf9278cf63fc65dd4ea38a02121fd0fa33b1a4093da3e0fe4c7acd6eb64736f6c63430008140033",
  "linkReferences": {},
  "deployedLinkReferences": {}
}