{
  "_format": "hh-sol-artifact-1",
  "contractName": "NFTLending",
  "sourceName": "contracts/NFTLending.sol",
  "abi": [
    {
      "inputs": [],
      "stateMutability": "nonpayable",
      "type": "constructor"
    },
    {
      "inputs": [
        {
          "internalType": "address",
          "name": "owner",
          "type": "address"
        }
      ],
      "name": "OwnableInvalidOwner",
      "type": "error"
    },
    {
      "inputs": [
        {
          "internalType": "address",
          "name": "account",
          "type": "address"
        }
      ],
      "name": "OwnableUnauthorizedAccount",
      "type": "error"
    },
    {
      "inputs": [],
      "name": "ReentrancyGuardReentrantCall",
      "type": "error"
    },
    {
      "anonymous": false,
      "inputs": [
        {
          "indexed": true,
          "internalType": "uint256",
          "name": "loanId",
          "type": "uint256"
        },
        {
          "indexed": true,
          "internalType": "address",
          "name": "borrower",
          "type": "address"
        },
        {
          "indexed": true,
          "internalType": "address",
          "name": "lender",
          "type": "address"
        },
        {
          "indexed": false,
          "internalType": "address",
          "name": "nftContract",
          "type": "address"
        },
        {
          "indexed": false,
          "internalType": "uint256",
          "name": "tokenId",
          "type": "uint256"
        },
        {
          "indexed": false,
          "internalType": "uint256",
          "name": "amount",
          "type": "uint256"
        },
        {
          "indexed": false,
          "internalType": "uint256",
          "name": "interestRate",
          "type": "uint256"
        },
        {
          "indexed": false,
          "internalType": "uint256",
          "name": "duration",
          "type": "uint256"
        }
      ],
      "name": "LoanCreated",
      "type": "event"
    },
    {
      "anonymous": false,
      "inputs": [
        {
          "indexed": true,
          "internalType": "uint256",
          "name": "loanId",
          "type": "uint256"
        },
        {
          "indexed": true,
          "internalType": "address",
          "name": "liquidator",
          "type": "address"
        },
        {
          "indexed": false,
          "internalType": "address",
          "name": "nftContract",
          "type": "address"
        },
        {
          "indexed": false,
          "internalType": "uint256",
          "name": "tokenId",
          "type": "uint256"
        }
      ],
      "name": "LoanLiquidated",
      "type": "event"
    },
    {
      "anonymous": false,
      "inputs": [
        {
          "indexed": true,
          "internalType": "uint256",
          "name": "loanId",
          "type": "uint256"
        },
        {
          "indexed": true,
          "internalType": "address",
          "name": "borrower",
          "type": "address"
        },
        {
          "indexed": false,
          "internalType": "uint256",
          "name": "totalRepaid",
          "type": "uint256"
        }
      ],
      "name": "LoanRepaid",
      "type": "event"
    },
    {
      "anonymous": false,
      "inputs": [
        {
          "indexed": true,
          "internalType": "address",
          "name": "previousOwner",
          "type": "address"
        },
        {
          "indexed": true,
          "internalType": "address",
          "name": "newOwner",
          "type": "address"
        }
      ],
      "name": "OwnershipTransferred",
      "type": "event"
    },
    {
      "inputs": [],
      "name": "BASIS_POINTS",
      "outputs": [
        {
          "internalType": "uint256",
          "name": "",
          "type": "uint256"
        }
      ],
      "stateMutability": "view",
      "type": "function"
    },
    {
      "inputs": [],
      "name": "LIQUIDATION_THRESHOLD",
      "outputs": [
        {
          "internalType": "uint256",
          "name": "",
          "type": "uint256"
        }
      ],
      "stateMutability": "view",
      "type": "function"
    },
    {
      "inputs": [],
      "name": "SECONDS_PER_YEAR",
      "outputs": [
        {
          "internalType": "uint256",
          "name": "",
          "type": "uint256"
        }
      ],
      "stateMutability": "view",
      "type": "function"
    },
    {
      "inputs": [
        {
          "internalType": "address",
          "name": "",
          "type": "address"
        },
        {
          "internalType": "uint256",
          "name": "",
          "type": "uint256"
        }
      ],
      "name": "borrowerLoans",
      "outputs": [
        {
          "internalType": "uint256",
          "name": "",
          "type": "uint256"
        }
      ],
      "stateMutability": "view",
      "type": "function"
    },
    {
      "inputs": [
        {
          "internalType": "uint256",
          "name": "_loanId",
          "type": "uint256"
        }
      ],
      "name": "calculateRepaymentAmount",
      "outputs": [
        {
          "internalType": "uint256",
          "name": "",
          "type": "uint256"
        }
      ],
      "stateMutability": "view",
      "type": "function"
    },
    {
      "inputs": [
        {
          "internalType": "address",
          "name": "_nftContract",
          "type": "address"
        },
        {
          "internalType": "uint256",
          "name": "_tokenId",
          "type": "uint256"
        },
        {
          "internalType": "uint256",
          "name": "_amount",
          "type": "uint256"
        },
        {
          "internalType": "uint256",
          "name": "_interestRate",
          "type": "uint256"
        },
        {
          "internalType": "uint256",
          "name": "_duration",
          "type": "uint256"
        }
      ],
      "name": "createLoan",
      "outputs": [
        {
          "internalType": "uint256",
          "name": "",
          "type": "uint256"
        }
      ],
      "stateMutability": "nonpayable",
      "type": "function"
    },
    {
      "inputs": [
        {
          "internalType": "uint256",
          "name": "_loanId",
          "type": "uint256"
        }
      ],
      "name": "fundLoan",
      "outputs": [],
      "stateMutability": "payable",
      "type": "function"
    },
    {
      "inputs": [],
      "name": "getAvailableLoans",
      "outputs": [
        {
          "internalType": "uint256[]",
          "name": "",
          "type": "uint256[]"
        }
      ],
      "stateMutability": "view",
      "type": "function"
    },
    {
      "inputs": [
        {
          "internalType": "address",
          "name": "_borrower",
          "type": "address"
        }
      ],
      "name": "getBorrowerLoans",
      "outputs": [
        {
          "internalType": "uint256[]",
          "name": "",
          "type": "uint256[]"
        }
      ],
      "stateMutability": "view",
      "type": "function"
    },
    {
      "inputs": [
        {
          "internalType": "address",
          "name": "_lender",
          "type": "address"
        }
      ],
      "name": "getLenderLoans",
      "outputs": [
        {
          "internalType": "uint256[]",
          "name": "",
          "type": "uint256[]"
        }
      ],
      "stateMutability": "view",
      "type": "function"
    },
    {
      "inputs": [
        {
          "internalType": "uint256",
          "name": "_loanId",
          "type": "uint256"
        }
      ],
      "name": "getLoan",
      "outputs": [
        {
          "components": [
            {
              "internalType": "address",
              "name": "borrower",
              "type": "address"
            },
            {
              "internalType": "address",
              "name": "lender",
              "type": "address"
            },
            {
              "internalType": "address",
              "name": "nftContract",
              "type": "address"
            },
            {
              "internalType": "uint256",
              "name": "tokenId",
              "type": "uint256"
            },
            {
              "internalType": "uint256",
              "name": "amount",
              "type": "uint256"
            },
            {
              "internalType": "uint256",
              "name": "interest",
              "type": "uint256"
            },
            {
              "internalType": "uint256",
              "name": "interestRate",
              "type": "uint256"
            },
            {
              "internalType": "uint256",
              "name": "startTime",
              "type": "uint256"
            },
            {
              "internalType": "uint256",
              "name": "duration",
              "type": "uint256"
            },
            {
              "internalType": "bool",
              "name": "isActive",
              "type": "bool"
            }
          ],
          "internalType": "struct NFTLending.Loan",
          "name": "",
          "type": "tuple"
        }
      ],
      "stateMutability": "view",
      "type": "function"
    },
    {
      "inputs": [
        {
          "internalType": "uint256",
          "name": "_loanId",
          "type": "uint256"
        }
      ],
      "name": "isLoanDefaulted",
      "outputs": [
        {
          "internalType": "bool",
          "name": "",
          "type": "bool"
        }
      ],
      "stateMutability": "view",
      "type": "function"
    },
    {
      "inputs": [
        {
          "internalType": "address",
          "name": "",
          "type": "address"
        },
        {
          "internalType": "uint256",
          "name": "",
          "type": "uint256"
        }
      ],
      "name": "lenderLoans",
      "outputs": [
        {
          "internalType": "uint256",
          "name": "",
          "type": "uint256"
        }
      ],
      "stateMutability": "view",
      "type": "function"
    },
    {
      "inputs": [
        {
          "internalType": "uint256",
          "name": "_loanId",
          "type": "uint256"
        }
      ],
      "name": "liquidateLoan",
      "outputs": [],
      "stateMutability": "nonpayable",
      "type": "function"
    },
    {
      "inputs": [],
      "name": "loanCounter",
      "outputs": [
        {
          "internalType": "uint256",
          "name": "",
          "type": "uint256"
        }
      ],
      "stateMutability": "view",
      "type": "function"
    },
    {
      "inputs": [
        {
          "internalType": "uint256",
          "name": "",
          "type": "uint256"
        }
      ],
      "name": "loans",
      "outputs": [
        {
          "internalType": "address",
          "name": "borrower",
          "type": "address"
        },
        {
          "internalType": "address",
          "name": "lender",
          "type": "address"
        },
        {
          "internalType": "address",
          "name": "nftContract",
          "type": "address"
        },
        {
          "internalType": "uint256",
          "name": "tokenId",
          "type": "uint256"
        },
        {
          "internalType": "uint256",
          "name": "amount",
          "type": "uint256"
        },
        {
          "internalType": "uint256",
          "name": "interest",
          "type": "uint256"
        },
        {
          "internalType": "uint256",
          "name": "interestRate",
          "type": "uint256"
        },
        {
          "internalType": "uint256",
          "name": "startTime",
          "type": "uint256"
        },
        {
          "internalType": "uint256",
          "name": "duration",
          "type": "uint256"
        },
        {
          "internalType": "bool",
          "name": "isActive",
          "type": "bool"
        }
      ],
      "stateMutability": "view",
      "type": "function"
    },
    {
      "inputs": [],
      "name": "owner",
      "outputs": [
        {
          "internalType": "address",
          "name": "",
          "type": "address"
        }
      ],
      "stateMutability": "view",
      "type": "function"
    },
    {
      "inputs": [],
      "name": "renounceOwnership",
      "outputs": [],
      "stateMutability": "nonpayable",
      "type": "function"
    },
    {
      "inputs": [
        {
          "internalType": "uint256",
          "name": "_loanId",
          "type": "uint256"
        }
      ],
      "name": "repayLoan",
      "outputs": [],
      "stateMutability": "payable",
      "type": "function"
    },
    {
      "inputs": [
        {
          "internalType": "address",
          "name": "newOwner",
          "type": "address"
        }
      ],
      "name": "transferOwnership",
      "outputs": [],
      "stateMutability": "nonpayable",
      "type": "function"
    },
    {
      "stateMutability": "payable",
      "type": "receive"
    }
  ],
  "bytecode": "0x608060405234801561001057600080fd5b506001600055338061003c57604051631e4fbdf760e01b81526000600482015260240160405180910390fd5b61004581610050565b5060016002556100a2565b600180546001600160a01b038381166001600160a01b0319831681179093556040519116919082907f8be0079c531659141344cd1fd0a4f28419497f9722a3daafe3b4186f6b6457e090600090a35050565b611a8a806100b16000396000f3fe6080604052600436106101235760003560e01c8063b1197239116100a0578063e6a69ab811610064578063e6a69ab8146103ae578063e8cbab09146103c6578063eee8b7ff146103f6578063eeeb0c1714610416578063f2fde38b1461043657600080fd5b8063b11972391461025d578063ccdd9f5d1461027d578063e1ec3c681461029d578063e1f1c4a714610378578063e3ed19021461038e57600080fd5b8063846b909a116100e7578063846b909a146101d95780638da5cb5b146101ec57806390a8ae9b14610214578063ab7b1c891461022a578063afd765ba1461023d57600080fd5b806334d9289e1461012f5780633cdb72f114610153578063407a4e7d14610173578063504006ca14610195578063715018a6146101c257600080fd5b3661012a57005b600080fd5b34801561013b57600080fd5b506002545b6040519081526020015b60405180910390f35b34801561015f57600080fd5b5061014061016e3660046117bf565b610456565b34801561017f57600080fd5b50610188610487565b60405161014a91906117eb565b3480156101a157600080fd5b506101b56101b036600461182f565b6106e6565b60405161014a9190611848565b3480156101ce57600080fd5b506101d76107f1565b005b6101d76101e736600461182f565b610805565b3480156101f857600080fd5b506001546040516001600160a01b03909116815260200161014a565b34801561022057600080fd5b50610140611b5881565b6101d761023836600461182f565b610a42565b34801561024957600080fd5b506101406102583660046118ea565b610d81565b34801561026957600080fd5b5061014061027836600461182f565b61123e565b34801561028957600080fd5b506101d761029836600461182f565b611341565b3480156102a957600080fd5b5061031d6102b836600461182f565b600360208190526000918252604090912080546001820154600283015493830154600484015460058501546006860154600787015460088801546009909801546001600160a01b03978816999688169897909616969495939492939192909160ff168a565b604080516001600160a01b039b8c168152998b1660208b015297909916968801969096526060870194909452608086019290925260a085015260c084015260e08301526101008201529015156101208201526101400161014a565b34801561038457600080fd5b5061014061271081565b34801561039a57600080fd5b506101406103a93660046117bf565b611501565b3480156103ba57600080fd5b506101406301e1338081565b3480156103d257600080fd5b506103e66103e136600461182f565b61151d565b604051901515815260200161014a565b34801561040257600080fd5b5061018861041136600461192e565b6115f0565b34801561042257600080fd5b5061018861043136600461192e565b61165c565b34801561044257600080fd5b506101d761045136600461192e565b6116c6565b6005602052816000526040600020818154811061047257600080fd5b90600052602060002001600091509150505481565b6060600060015b6002548110156105805760008181526003602081815260409283902083516101408101855281546001600160a01b039081168252600183015481169382019390935260028201549092169382019390935290820154606082015260048201546080820152600582015460a0820152600682015460c0820152600782015460e0820152600882015461010082015260099091015460ff16158015610120830181905290610545575060208101516001600160a01b0316155b801561055a575080516001600160a01b031615155b1561056d578261056981611961565b9350505b508061057881611961565b91505061048e565b5060008167ffffffffffffffff81111561059c5761059c61197a565b6040519080825280602002602001820160405280156105c5578160200160208202803683370190505b509050600060015b6002548110156106dd5760008181526003602081815260409283902083516101408101855281546001600160a01b039081168252600183015481169382019390935260028201549092169382019390935290820154606082015260048201546080820152600582015460a0820152600682015460c0820152600782015460e0820152600882015461010082015260099091015460ff16158015610120830181905290610684575060208101516001600160a01b0316155b8015610699575080516001600160a01b031615155b156106ca57818484815181106106b1576106b1611990565b6020908102919091010152826106c681611961565b9350505b50806106d581611961565b9150506105cd565b50909392505050565b61075960405180610140016040528060006001600160a01b0316815260200160006001600160a01b0316815260200160006001600160a01b031681526020016000815260200160008152602001600081526020016000815260200160008152602001600081526020016000151581525090565b5060009081526003602081815260409283902083516101408101855281546001600160a01b039081168252600183015481169382019390935260028201549092169382019390935290820154606082015260048201546080820152600582015460a0820152600682015460c0820152600782015460e0820152600882015461010082015260099091015460ff16151561012082015290565b6107f9611701565b610803600061172e565b565b61080d611780565b6000818152600360205260409020600981015460ff166108485760405162461bcd60e51b815260040161083f906119a6565b60405180910390fd5b60018101546001600160a01b0316156108995760405162461bcd60e51b8152602060048201526013602482015272131bd85b88185b1c9958591e48199d5b991959606a1b604482015260640161083f565b806004015434146108ec5760405162461bcd60e51b815260206004820152601860248201527f496e636f72726563742066756e64696e6720616d6f756e740000000000000000604482015260640161083f565b600181810180546001600160a01b0319163390811790915560009081526005602090815260408083208054948501815583529082209092018490558254915190916001600160a01b03169034908381818185875af1925050503d8060008114610971576040519150601f19603f3d011682016040523d82523d6000602084013e610976565b606091505b50509050806109b95760405162461bcd60e51b815260206004820152600f60248201526e151c985b9cd9995c8819985a5b1959608a1b604482015260640161083f565b815460028301546003840154600485015460068601546008870154604080516001600160a01b0396871681526020810195909552840192909252606083015260808201523392919091169085907f722ddb496f31d23cf727d33ddd3f1cde35f10d2ca7eeeca2b7dee8aaf1cef8849060a00160405180910390a45050610a3f6001600055565b50565b610a4a611780565b6000818152600360205260409020600981015460ff16610a7c5760405162461bcd60e51b815260040161083f906119a6565b60018101546001600160a01b0316610ac85760405162461bcd60e51b815260206004820152600f60248201526e131bd85b881b9bdd08199d5b991959608a1b604482015260640161083f565b80546001600160a01b03163314610b215760405162461bcd60e51b815260206004820152601760248201527f4f6e6c7920626f72726f7765722063616e207265706179000000000000000000604482015260640161083f565b6000610b2c8361123e565b905080341015610b7e5760405162461bcd60e51b815260206004820152601d60248201527f496e73756666696369656e742072657061796d656e7420616d6f756e74000000604482015260640161083f565b60098201805460ff1916905560018201546040516000916001600160a01b03169083908381818185875af1925050503d8060008114610bd9576040519150601f19603f3d011682016040523d82523d6000602084013e610bde565b606091505b5050905080610c2f5760405162461bcd60e51b815260206004820152601960248201527f5472616e7366657220746f206c656e646572206661696c656400000000000000604482015260640161083f565b81341115610cc857600033610c4484346119d2565b604051600081818185875af1925050503d8060008114610c80576040519150601f19603f3d011682016040523d82523d6000602084013e610c85565b606091505b5050905080610cc65760405162461bcd60e51b815260206004820152600d60248201526c1499599d5b990819985a5b1959609a1b604482015260640161083f565b505b6002830154835460038501546040516323b872dd60e01b81523060048201526001600160a01b03928316602482015260448101919091529116906323b872dd90606401600060405180830381600087803b158015610d2557600080fd5b505af1158015610d39573d6000803e3d6000fd5b50506040518481523392508691507f512d3e65b3e58c2187bb1872aa435dba5bd09c1c03823ba56ab70aac411e4a219060200160405180910390a3505050610a3f6001600055565b6000610d8b611780565b6001600160a01b038616610dd85760405162461bcd60e51b8152602060048201526014602482015273125b9d985b1a59081391950818dbdb9d1c9858dd60621b604482015260640161083f565b60008411610e285760405162461bcd60e51b815260206004820152601d60248201527f416d6f756e74206d7573742062652067726561746572207468616e2030000000604482015260640161083f565b60008211610e785760405162461bcd60e51b815260206004820152601f60248201527f4475726174696f6e206d7573742062652067726561746572207468616e203000604482015260640161083f565b612710831115610ec35760405162461bcd60e51b8152602060048201526016602482015275092dce8cae4cae6e840e4c2e8ca40e8dede40d0d2ced60531b604482015260640161083f565b6040516331a9108f60e11b815260048101869052869033906001600160a01b03831690636352211e90602401602060405180830381865afa158015610f0c573d6000803e3d6000fd5b505050506040513d601f19601f82011682018060405250810190610f3091906119eb565b6001600160a01b031614610f7f5760405162461bcd60e51b8152602060048201526016602482015275165bdd48191bdb89dd081bdddb881d1a1a5cc813919560521b604482015260640161083f565b6040516323b872dd60e01b8152336004820152306024820152604481018790526001600160a01b038216906323b872dd90606401600060405180830381600087803b158015610fcd57600080fd5b505af1158015610fe1573d6000803e3d6000fd5b50506002805460009350915082610ff783611961565b919050559050604051806101400160405280336001600160a01b0316815260200160006001600160a01b03168152602001896001600160a01b0316815260200188815260200187815260200160008152602001868152602001428152602001858152602001600115158152506003600083815260200190815260200160002060008201518160000160006101000a8154816001600160a01b0302191690836001600160a01b0316021790555060208201518160010160006101000a8154816001600160a01b0302191690836001600160a01b0316021790555060408201518160020160006101000a8154816001600160a01b0302191690836001600160a01b03160217905550606082015181600301556080820151816004015560a0820151816005015560c0820151816006015560e0820151816007015561010082015181600801556101208201518160090160006101000a81548160ff02191690831515021790555090505060046000336001600160a01b03166001600160a01b0316815260200190815260200160002081908060018154018082558091505060019003906000526020600020016000909190919091505560006001600160a01b0316336001600160a01b0316827f722ddb496f31d23cf727d33ddd3f1cde35f10d2ca7eeeca2b7dee8aaf1cef8848b8b8b8b8b6040516112209594939291906001600160a01b03959095168552602085019390935260408401919091526060830152608082015260a00190565b60405180910390a49150506112356001600055565b95945050505050565b600081815260036020818152604080842081516101408101835281546001600160a01b039081168252600183015481169482019490945260028201549093169183019190915291820154606082015260048201546080820152600582015460a0820152600682015460c0820152600782015460e0820152600882015461010082015260099091015460ff16151561012082018190526112e05750600092915050565b60008160e00151426112f291906119d2565b905060006113066301e13380612710611a08565b828460c00151856080015161131b9190611a08565b6113259190611a08565b61132f9190611a1f565b90508083608001516112359190611a41565b611349611780565b6000818152600360205260409020600981015460ff1661137b5760405162461bcd60e51b815260040161083f906119a6565b60018101546001600160a01b03166113c75760405162461bcd60e51b815260206004820152600f60248201526e131bd85b881b9bdd08199d5b991959608a1b604482015260640161083f565b806008015481600701546113db9190611a41565b42116114205760405162461bcd60e51b8152602060048201526014602482015273131bd85b881b9bdd08195e1c1a5c9959081e595d60621b604482015260640161083f565b60098101805460ff191690556002810154600182015460038301546040516323b872dd60e01b81523060048201526001600160a01b03928316602482015260448101919091529116906323b872dd90606401600060405180830381600087803b15801561148c57600080fd5b505af11580156114a0573d6000803e3d6000fd5b5050505060028101546003820154604080516001600160a01b0390931683526020830191909152339184917fe4b3cb24da49cbaa1989989a720518b9c8c12f4a6e0d848853745d9271104b0f910160405180910390a350610a3f6001600055565b6004602052816000526040600020818154811061047257600080fd5b600081815260036020818152604080842081516101408101835281546001600160a01b039081168252600183015481169482019490945260028201549093169183019190915291820154606082015260048201546080820152600582015460a0820152600682015460c0820152600782015460e0820152600882015461010082015260099091015460ff161580156101208301819052906115ca575060208101516001600160a01b031615155b80156115e957508061010001518160e001516115e69190611a41565b42115b9392505050565b6001600160a01b03811660009081526004602090815260409182902080548351818402810184019094528084526060939283018282801561165057602002820191906000526020600020905b81548152602001906001019080831161163c575b50505050509050919050565b6001600160a01b038116600090815260056020908152604091829020805483518184028101840190945280845260609392830182828015611650576020028201919060005260206000209081548152602001906001019080831161163c5750505050509050919050565b6116ce611701565b6001600160a01b0381166116f857604051631e4fbdf760e01b81526000600482015260240161083f565b610a3f8161172e565b6001546001600160a01b031633146108035760405163118cdaa760e01b815233600482015260240161083f565b600180546001600160a01b038381166001600160a01b0319831681179093556040519116919082907f8be0079c531659141344cd1fd0a4f28419497f9722a3daafe3b4186f6b6457e090600090a35050565b6002600054036117a357604051633ee5aeb560e01b815260040160405180910390fd5b6002600055565b6001600160a01b0381168114610a3f57600080fd5b600080604083850312156117d257600080fd5b82356117dd816117aa565b946020939093013593505050565b6020808252825182820181905260009190848201906040850190845b8181101561182357835183529284019291840191600101611807565b50909695505050505050565b60006020828403121561184157600080fd5b5035919050565b81516001600160a01b031681526101408101602083015161187460208401826001600160a01b03169052565b50604083015161188f60408401826001600160a01b03169052565b50606083015160608301526080830151608083015260a083015160a083015260c083015160c083015260e083015160e0830152610100808401518184015250610120808401516118e28285018215159052565b505092915050565b600080600080600060a0868803121561190257600080fd5b853561190d816117aa565b97602087013597506040870135966060810135965060800135945092505050565b60006020828403121561194057600080fd5b81356115e9816117aa565b634e487b7160e01b600052601160045260246000fd5b6000600182016119735761197361194b565b5060010190565b634e487b7160e01b600052604160045260246000fd5b634e487b7160e01b600052603260045260246000fd5b6020808252601290820152714c6f616e206973206e6f742061637469766560701b604082015260600190565b818103818111156119e5576119e561194b565b92915050565b6000602082840312156119fd57600080fd5b81516115e9816117aa565b80820281158282048414176119e5576119e561194b565b600082611a3c57634e487b7160e01b600052601260045260246000fd5b500490565b808201808211156119e5576119e561194b56fea264697066735822122071e6e6ab2691e78c3e91e5129817389e2df1ca1b75f610b8ac4b8a32c554fdab64736f6c63430008140033",
  "linkReferences": {},
  "deployedLinkReferences": {}
}